:08000000803102288731FD2F39
:100C260022000D16080022000D12080021000D12E8
:100C3600080021000D16080020000D0E01390800DD
:100C46001630210097000800E43000320032890B8C
:100C5600282E0032003208003200910192019301E1
:100C66009401950196010800013021009D00F030A5
:100C76009E009F019B019C01080060303200990094
:100C86009B019D0107309F009E01080086312F269B
:100C96008631863171268631863140268631863107
:100CA60023268631863137260800F3007308F200C2
:100CB600F20DF20D21001D087206033972069D0021
:100CC6001D140D30890B652E000021009D149D1802
:100CD6006A2E1C08F1001B08F000080022008C0197
:100CE60010308D008E01373021008C00E0308D00F1
:100CF600DF308E008F3023008E00E0308D003730DD
:100D06008C0024008D018C018E0125008C018D0143
:100D16008E010800863119268631863116268631DF
:100D26000630F0001630890B962EF00B962E863183
:100D36001326863186311C2686315030890BA12E2A
:100D460086311F268631003A031DA32EA0300032BD
:100D5600890BAA2E86311F268631003A0319AD2E3D
:100D66000530F000FC30890BB62EF00BB62E0800CD
:100D7600F100863119268631F20108307202031815
:100D8600E82E863116268631711CD42E0D30890B3D
:100D9600CA2E0000863113268631F030890BD12EFB
:100DA600DE2EF030890BD52E8631132686310032A1
:100DB6000032003200320310F10C0130F0007008EE
:100DC600F20708307202031CC42E86311C26080066
:100DD600F201F3010830730203181A2F863119261F
:100DE60086318631162686310D30890BF82E0000A5
:100DF6008631132686311A30890BFF2E0032863152
:100E06001F268631F000730A092FF035890B082F4B
:100E16007008F1007108F204F030890B102F0130D0
:100E2600F0007008F30708307302031CF12E7208F5
:100E36000800F901FA017408750403194B2FFB0128
:100E4600FB0AF51B302F0130F435F50D890B272FE2
:100E56000130F8007808FB07242F0130F935FA0D28
:100E6600890B312F75087702031D3B2F7408760214
:100E7600031C422F7408F6027508F73B79140130FB
:100E8600F536F40C890B432F0130FB02031D302F7E
:100E96007A08F5007908F40008008631492687317A
:100EA60086312726873186318D268731CC308631AB
:100EB600BB2687314E308631BB26873100308631DE
:100EC600BB26873100308631BB2687311F308631FD
:100ED600BB26873186318D268731CC308631BB26BD
:100EE600873144308631BB26873105302000A1008A
:100EF6000F30A000F130890B7E2FA00B7E2FA10BA7
:100F06007E2F86318D268731CC308631BB268731C0
:100F1600BE308631BB2687312000B0010930300251
:100F26000318A82F8631EB2687312000A000300851
:100F3600243E86008701200881000130A000200899
:100F4600B00709303002031C952F2408A000043096
:100F5600A036890BAB2F0F302005A10025080F39CD
:100F6600A2000330A235FF3E031DB52F2235210412
:100F7600A3002308AF003330F4000030F500023040
:100F86008631582687317108F7007008F6008731D8
:100F96001C2787317408143E2000AD000030753DD3
:100FA600AE002D08013EA00000302E3DA1002F0806
:100FB600A200A30121082302031DE32F2008220219
:100FC600031CE82F22008E16562F20002F08A000A3
:100FD600A1012D08FF3EA200FF302E3DA3002108EF
:100FE6002302031DF82F20082202031C562F22007D
:0A0FF6008E12562F20008731502F75
:020000040001F9
:08000E008CFFF3FFFFFFFFFF71
:00000001FF
